:020000040800F2
:100000008006002029020008F1030008E903000827
:10001000ED030008F7020008670B0008000000006D
:10002000000000000000000000000000ED050008D6
:10003000FB0200080000000081040008DD06000843
:10004000430200084302000843020008430200087C
:10005000430200084302000843020008430200086C
:10006000430200084302000843020008430200085C
:10007000430200084302000843020008430200084C
:10008000430200084302000843020008430200083C
:10009000430200084302000843020008430200082C
:1000A000430200084302000843020008430200081C
:1000B000430200084302000843020008430200080C
:1000C00043020008430200084302000843020008FC
:1000D0004302000843020008A50700084302000885
:1000E00043020008430200084302000843020008DC
:1000F00043020008430200084302000843020008CC
:1001000043020008430200084907000843020008B0
:1001100043020008430200084302000843020008AB
:10012000430200084302000843020008430200089B
:10013000430200084302000843020008430200088B
:10014000430200084302000843020008430200087B
:10015000430200084302000843020008430200086B
:10016000430200084302000843020008430200085B
:10017000430200084302000843020008430200084B
:10018000430200084302000800F002F800F03CF8C7
:100190000AA090E8000C82448344AAF10107DA45E2
:1001A00001D100F031F8AFF2090EBAE80F0013F0F8
:1001B000010F18BFFB1A43F001031847C0090000E4
:1001C000E0090000103A24BF78C878C1FAD8520775
:1001D00024BF30C830C144BF04680C6070470000C1
:1001E0000023002400250026103A28BF78C1FBD840
:1001F000520728BF30C148BF0B6070471FB500F0E1
:10020000B8FC1FBD10B510BD00F031F81146FFF766
:10021000F5FF00F0AAFC00F04FF803B4FFF7F2FF7F
:1002200003BC00F057F80000094880470948004720
:10023000FEE7FEE7FEE7FEE7FEE7FEE7FEE7FEE796
:10024000FEE7FEE704480549054A064B70470000F3
:10025000E1060008890100088000002080060020D7
:10026000800200208002002070477047704775466A
:1002700000F02CF8AE4605006946534620F0070012
:10028000854618B020B5FFF7DDFFBDE820404FF0F0
:1002900000064FF000074FF000084FF0000B21F070
:1002A0000701AC46ACE8C009ACE8C009ACE8C0093D
:1002B000ACE8C0098D46704710B50446AFF3008026
:1002C0002046BDE81040FFF7A8BF00000048704777
:1002D0002000002001491820ABBEFEE726000200E6
:1002E000704710B54FF4C06000F0C0F84FF4E13033
:1002F00000F06AFA10BD00BFFEE77047F0B50A468D
:1003000000210023002400BF3DE0012505FA01F390
:10031000156805EA03049C4234D105684F000326A2
:10032000BE40B543056015794E00B54006683543BB
:1003300005601579012D02D01579022D16D1856839
:100340004F000326BE40B543856055794E00B54049
:10035000866835438560456801268E40B543456013
:10036000456896798E40B6B235434560C5684F0002
:100370000326BE40B543C560D5794E00B540C6687A
:100380003543C560491C1029BFD3F0BDF0B500232B
:1003900000244D07ED0E02FA05F3CE1000F1200502
:1003A00055F826504E07F70E0F26BE40B543CF1026
:1003B00000F1200646F82750CE1000F1200555F830
:1003C000265045EA0304CE1000F1200545F82640EA
:1003D000F0BD018370474FF6FF710160002101718C
:1003E00041718171C171704700BFFEE700BFFEE738
:1003F0007047000070B5002100230F22C4781CB3A1
:10040000174C246804F4E064C4F5E064C4F30721E5
:10041000C1F10404E3B20A4144789C40E1B284781B
:10042000144021430C07210E0E4C057861550478C9
:1004300004F01F050124AC4005786D11AD0005F1F5
:10044000E025C5F8004109E0047804F01F05012407
:10045000AC40054D0678761145F8264070BD000089
:100460000CED00E000E400E080E100E0024901431F
:10047000024A1160704700000000FA050CED00E030
:100480007047000029B1064A12680243044B1A6003
:1004900004E0034A12688243014B1A60704700006F
:1004A0003038024029B1064A12680243044B1A60F0
:1004B00004E0034A12688243014B1A60704700004F
:1004C0004038024029B1064A12680243044B1A60C0
:1004D00004E0034A12688243014B1A60704700002F
:1004E0002038024029B1064A12680243044B1A60C0
:1004F00004E0034A12688243014B1A60704700000F
:1005000024380240F0B500210022002402250026F4
:100510000223324F3F6807F00C0121B1042905D0B6
:10052000082937D105E02E4F076036E02D4F0760D0
:1005300033E02A4F3F1F3F68C7F38056274F3F1FC6
:100540003F6807F03F036EB1264FB7FBF3F7DFF8C4
:100550008CC0ACF1040CDCF800C0CCF3881C07FBA9
:100560000CF40CE01E4FB7FBF3F7DFF870C0ACF1F2
:10057000040CDCF800C0CCF3881C07FB0CF4174F0C
:100580003F1F3F68C7F301477F1C7D00B4FBF5F7B1
:10059000076002E0124F076000BF00BF0F4F3F68C7
:1005A00007F0F0010909104F7A5C0768D7404760EF
:1005B0000A4F3F6807F4E051890A0B4F7A5C47689D
:1005C000D7408760054F3F6807F46041490B064FED
:1005D0007A5C4768D740C760F0BD00000838024029
:1005E0000024F40000127A00000000207047000090
:1005F0000CB50020019000903448006840F4803031
:100600003249086000BF3148006800F400300090B3
:100610000198401C0190009818B90198B0F5A04FBE
:10062000F1D12A48006800F4003010B10120009098
:1006300001E0002000900098012846D12348403076
:10064000006840F08050214940310860204800682F
:1006500040F440401E4908601C48083000681B49AF
:10066000083108600846006840F400400860084609
:10067000006840F4A05008601648091F0860081F71
:10068000006840F08070091F086000BF0F480068D4
:1006900000F000700028F9D040F205700E490860A3
:1006A0000A480830006820F0030008490831086053
:1006B0000846006840F00200086000BF03480830A8
:1006C000006800F00C000828F8D10CBD003802408A
:1006D0000070004008544007003C02407047000092
:1006E00010B51548006840F47000134908601348BD
:1006F000006840F001001149086000200F490831EE
:1007000008600E4800680E4908400C4908600D4812
:10071000091D0860081F006820F48020091F086078
:10072000002006490C310860FFF762FF4FF00060BF
:1007300001498039086010BD88ED00E000380240B2
:10074000FFFFF6FE1030002410B50121084800F02C
:1007500018F840B107480068401C064908600321AA
:100760000548FFF736FE0121014800F007F810BDEB
:10077000000C00401C00002000080240CA43028216
:10078000704730B50246002000230024158A05EA90
:100790000103958905EA010413B10CB1012000E0C1
:1007A000002030BD10B540F22551054800F011F988
:1007B00020B1034800F0C6F90249087010BD0000DE
:1007C000004400401800002010B588B00446012104
:1007D0000846FFF757FE01214804FFF763FE072292
:1007E00003212C48FFF7D2FD072202212948FFF7F9
:1007F000CDFD06A8FFF7EFFD0C20069002208DF836
:100800001C0001208DF81F0002208DF81D00002023
:100810008DF81E0006A91F48FFF770FD1E4800F066
:1008200053F802A800F093F902940020ADF80C00F0
:10083000ADF80E00ADF810000C20ADF8120000204D
:10084000ADF8140002A9144800F012F9012240F298
:100850002441114800F0E7F8012240210E4800F041
:1008600029F801210C4800F019F840210A4800F04D
:10087000A3F826208DF8040001208DF80500002043
:100880008DF8060001208DF8070001A8FFF7B2FDE2
:1008900008B010BD000002400044004021B1828930
:1008A00042F40052828104E082894DF6FF731A40BF
:1008B000828170471AB1838A0B43838202E0838A64
:1008C0008B4383827047000010B50446324884424F
:1008D00008D101211020FFF705FE00211020FFF7AD
:1008E00001FE57E02D48844209D101214804FFF759
:1008F000E9FD00214FF40030FFF7E4FD4AE028480D
:10090000844209D101218804FFF7DCFD00214FF466
:100910008020FFF7D7FD3DE02248844209D1012124
:10092000C804FFF7CFFD00214FF40020FFF7CAFDF8
:1009300030E01D48844209D101210805FFF7C2FDBE
:1009400000214FF48010FFF7BDFD23E017488442DB
:1009500008D101212020FFF7C5FD00212020FFF74D
:10096000C1FD17E01248844209D101218807FFF731
:10097000A9FD00214FF08040FFF7A4FD0AE00D48DB
:10098000844207D101214005FFF79CFD002160054D
:10099000FFF798FD10BD000000100140004400402A
:1009A00000480040004C004000500040001401404E
:1009B00000780040007C004002460020B1F5007F36
:1009C00000D100BF13880B400BB1012000E00020D4
:1009D000704770B50246002400230025002040F631
:1009E0006A16B14200D100BFC1F3421501F01F03E6
:1009F000012606FA03F3012D02D19689334006E061
:100A0000022D02D1168A334001E0968A33400C123F
:100A1000012606FA04F41688344013B10CB1012003
:100A200000E0002070BDF0B503460024002600253C
:100A3000002040F66A17B94200D100BF1846C1F342
:100A4000421401F01F06012707FA06F5012C01D117
:100A50000C3004E0022C01D1103000E014301AB147
:100A600007682F43076002E00768AF430760F0BDE7
:100A70002DE9FF4705460E460024A14600BFA046CB
:100A8000B08900B100BF2C8A24F44054F08804439C
:100A90002C82AC8941F20C608443B08831890843D0
:100AA000718908430443AC81AC8A24F44074B08952
:100AB0000443AC826846FFF725FD2048854202D0FA
:100AC0001F48854202D1DDF80C9001E0DDF8089066
:100AD000A88900F4004040B109EBC90000EB0910FF
:100AE00031684900B0FBF1F707E009EBC90000EB02
:100AF000091031688900B0FBF1F76420B7FBF0F012
:100B000004012009642101FB1078A88900F4004049
:100B100040B1322000EBC800B0FBF1F000F007005C
:100B2000044308E0322000EB08106421B0FBF1F030
:100B300000F00F0004432C81BDE8FF870010014046
:100B40000014014001468888C0F3080070474FF444
:100B50001651016000218180C18001810C214181F9
:100B600000218181704700BFFEE7FFF7BAFB00BF9D
:100B7000FEE74FF04070E1EE100A70479C0B000852
:100B80000000002020000000C4010008BC0B000889
:100B90002000002060060000E001000800000000C6
:100BA0000102030401020304060708090000000013
:0C0BB00000000000000000000000000039
:040000050800018965
:00000001FF
